:020000040800F2
:1000000000800020891A0008151000081710000849
:10001000191000081B1000081D1000080000000047
:100020000000000000000000000000001F10000899
:10003000211000080000000023100008251000080F
:10004000D91A0008D91A0008D91A0008D91A0008C4
:10005000D91A0008D91A0008D91A0008D91A0008B4
:10006000D91A0008D91A0008D91A00082D1000085A
:100070003D1000084D1000085D100008D91A000856
:10008000D91A000800000000D91A0008D91A00087F
:10009000D91A0008D91A0008D91A0008D91A000874
:1000A0006D100008D91A0008D91A0008D91A0008DA
:1000B0007D1000088D100008D91A0008D91A000810
:1000C000D91A0008D91A0008D91A0008D91A000844
:1000D000D91A0008D91A0008D91A0008D91A000834
:1000E000D91A0008D91A0008D91A0008D91A000824
:1000F000D91A0008D91A0008D91A0008000000000F
:1001000000000000D91A000800000000D91A0008F9
:10011000D91A000800000000D91A00089D10000834
:10012000D91A0008D91A0008D91A0008D91A0008E3
:10013000D91A00080000000000000000D91A0008C9
:10014000D91A0008D91A00080000000000000000B9
:10015000000000000000000000000000000000009F
:10016000000000000000000000000000D91A000894
:10017000D91A000800000000000000000000000084
:1001800000000000D91A0008000000000000000074
:10019000000000000000000000000000000000005F
:1001A0000000000000000000D91A0008D91A000859
:1001B000D91A0008D91A0008D91A0008000000004E
:1001C00000000000D91A0008000000000000000034
:0801D000D91A0008D91A000831
:1001D80081F0004102E000BF83F0004330B54FEAF0
:1001E80041044FEA430594EA050F08BF90EA020F5D
:1001F8001FBF54EA000C55EA020C7FEA645C7FEAF0
:10020800655C00F0E2804FEA5454D4EB5555B8BF12
:100218006D420CDD2C4480EA020281EA030382EA83
:10022800000083EA010180EA020281EA0303362D15
:1002380088BF30BD11F0004F4FEA01314FF4801CE8
:100248004CEA113102D0404261EB410113F0004FFA
:100258004FEA03334CEA133302D0524263EB4303B1
:1002680094EA050F00F0A780A4F10104D5F1200E4F
:100278000DDB02FA0EFC22FA05F2801841F10001AA
:1002880003FA0EF2801843FA05F359410EE0A5F17E
:1002980020050EF1200E012A03FA0EFC28BF4CF0AF
:1002A800020C43FA05F3C01851EBE37101F0004565
:1002B80007D54FF0000EDCF1000C7EEB00006EEB72
:1002C8000101B1F5801F1BD3B1F5001F0CD34908FC
:1002D8005FEA30004FEA3C0C04F101044FEA445253
:1002E80012F5800F80F09A80BCF1004F08BF5FEADA
:1002F800500C50F1000041EB045141EA050130BDBA
:100308005FEA4C0C404141EB0101013C28BFB1F5CB
:10031800801FE9D291F0000F04BF01460020B1FA16
:1003280081F308BF2033A3F10B03B3F120020CDAE9
:100338000C3208DD02F1140CC2F10C0201FA0CF0C7
:1003480021FA02F10CE002F11402D8BFC2F1200C2C
:1003580001FA02F120FA0CFCDCBF41EA0C019040E2
:10036800E41AA2BF01EB0451294330BD6FEA04042B
:100378001F3C1CDA0C340EDC04F11404C4F1200216
:1003880020FA04F001FA02F340EA030021FA04F328
:1003980045EA030130BDC4F10C04C4F1200220FA7F
:1003A80002F001FA04F340EA0300294630BD21FABD
:1003B80004F0294630BD94F0000F83F4801306BF83
:1003C80081F480110134013D4EE77FEA645C18BF77
:1003D8007FEA655C29D094EA050F08BF90EA020F0E
:1003E80005D054EA000C04BF1946104630BD91EA06
:1003F800030F1EBF0021002030BD5FEA545C05D109
:100408004000494128BF41F0004130BD14F5800447
:100418003CBF01F5801130BD01F0004545F0FE41BB
:1004280041F470014FF0000030BD7FEA645C1ABFF0
:10043800194610467FEA655C1CBF0B46024650EA27
:10044800013406BF52EA033591EA030F41F4002153
:1004580030BD00BF90F0000F04BF0021704730B5D9
:100468004FF4806404F132044FF000054FF00001AE
:1004780050E700BF90F0000F04BF0021704730B56F
:100488004FF4806404F1320410F0004548BF404244
:100498004FF000013EE700BF42004FEAE2014FEA99
:1004A80031014FEA02701FBF12F07F4393F07F4F74
:1004B80081F06051704732F07F4208BF704793F077
:1004C8007F4F04BF41F40021704730B54FF460748A
:1004D80001F0004521F000411CE700BF50EA01028D
:1004E80008BF704730B54FF000050AE050EA010236
:1004F80008BF704730B511F0004502D5404261EBA6
:1005080041014FF4806404F132045FEA915C3FF4E6
:10051800D8AE4FF003025FEADC0C18BF03325FEA83
:10052800DC0C18BF033202EBDC02C2F1200300FA34
:1005380003FC20FA02F001FA03FE40EA0E0021FA59
:1005480002F11444BDE600BF70B54FF0FF0C4CF447
:10055800E06C1CEA11541DBF1CEA135594EA0C0FF9
:1005680095EA0C0F00F0DEF82C4481EA030621EA34
:100578004C5123EA4C5350EA013518BF52EA03356F
:1005880041F4801143F4801338D0A0FB02CE4FF021
:100598000005E1FB02E506F00042E0FB03E54FF051
:1005A8000006E1FB03569CF0000F18BF4EF0010E49
:1005B800A4F1FF04B6F5007F64F5407404D25FEA45
:1005C8004E0E6D4146EB060642EAC62141EA5551F8
:1005D8004FEAC52040EA5E504FEACE2EB4F1FD0C3A
:1005E80088BFBCF5E06F1ED8BEF1004F08BF5FEAB8
:1005F800500E50F1000041EB045170BD06F000466A
:1006080046EA010140EA020081EA0301B4EB5C0416
:10061800C2BFD4EB0C0541EA045170BD41F480110E
:100628004FF0000E013C00F3AB8014F1360FDEBF33
:10063800002001F0004170BDC4F10004203C35DA0F
:100648000C341BDC04F11404C4F1200500FA05F392
:1006580020FA04F001FA05F240EA020001F0004233
:1006680021F0004110EBD37021FA04F642EB0601A9
:100678005EEA430E08BF20EAD37070BDC4F10C04D3
:10068800C4F1200500FA04F320FA05F001FA04F297
:1006980040EA020001F0004110EBD37041F1000183
:1006A8005EEA430E08BF20EAD37070BDC4F120058E
:1006B80000FA05F24EEA020E20FA04F301FA05F2F6
:1006C80043EA020321FA04F001F0004121FA04F29E
:1006D80020EA020000EBD3705EEA430E08BF20EA6E
:1006E800D37070BD94F0000F0FD101F000464000A8
:1006F80041EB010111F4801F08BF013CF7D041EA2A
:10070800060195F0000F18BF704703F0004652002D
:1007180043EB030313F4801F08BF013DF7D043EAFE
:100728000603704794EA0C0F0CEA135518BF95EAB4
:100738000C0F0CD050EA410618BF52EA4306D1D13B
:1007480081EA030101F000414FF0000070BD50EA5A
:10075800410606BF1046194652EA430619D094EAE4
:100768000C0F02D150EA013613D195EA0C0F05D1CE
:1007780052EA03361CBF104619460AD181EA030122
:1007880001F0004141F0FE4141F470014FF00000DA
:1007980070BD41F0FE4141F4780170BD70B54FF075
:1007A800FF0C4CF4E06C1CEA11541DBF1CEA1355F5
:1007B80094EA0C0F95EA0C0F00F0A7F8A4EB0504D7
:1007C80081EA030E52EA03354FEA013100F08880CE
:1007D8004FEA03334FF0805545EA131343EA126397
:1007E8004FEA022245EA111545EA10654FEA00264C
:1007F8000EF000419D4208BF964244F1FD0404F505
:10080800407402D25B084FEA3202B61A65EB030560
:100818005B084FEA32024FF480104FF4002CB6EB1D
:10082800020E75EB030E22BFB61A754640EA0C009D
:100838005B084FEA3202B6EB020E75EB030E22BFDD
:10084800B61A754640EA5C005B084FEA3202B6EB1E
:10085800020E75EB030E22BFB61A754640EA9C00DD
:100868005B084FEA3202B6EB020E75EB030E22BFAD
:10087800B61A754640EADC0055EA060E18D04FEA6B
:10088800051545EA16754FEA06164FEAC30343EA0B
:1008980052734FEAC2025FEA1C1CC0D111F4801FD8
:1008A8000BD141EA00014FF000004FF0004CB6E7D1
:1008B80011F4801F04BF01430020B4F1FD0C88BF70
:1008C800BCF5E06F3FF6AFAEB5EB030C04BFB6EB7B
:1008D800020C5FEA500C50F1000041EB045170BD6E
:1008E8000EF0004E4EEA113114EB5C04C2BFD4EB9B
:1008F8000C0541EA045170BD41F480114FF0000E1F
:10090800013C90E645EA060E8DE60CEA135594EA9A
:100918000C0F08BF95EA0C0F3FF43BAF94EA0C0F9D
:100928000AD150EA01347FF434AF95EA0C0F7FF412
:1009380025AF104619462CE795EA0C0F06D152EA66
:1009480003353FF4FDAE1046194622E750EA41064A
:1009580018BF52EA43067FF4C5AE50EA41047FF45B
:100968000DAF52EA43057FF4EBAE12E74FF0FF3CC0
:1009780006E000BF4FF0010C02E000BF4FF0010C91
:100988004DF804CD4FEA410C7FEA6C5C4FEA430C0A
:1009980018BF7FEA6C5C1BD001B050EA410C0CBF59
:1009A80052EA430C91EA030F02BF90EA020F0020BB
:1009B800704710F1000F91EA030F58BF994208BF22
:1009C80090422CBFD8176FEAE37040F001007047DF
:1009D8004FEA410C7FEA6C5C02D150EA013C07D136
:1009E8004FEA430C7FEA6C5CD6D152EA033CD3D081
:1009F8005DF8040B704700BF8446104662468C467B
:100A08001946634600E000BF01B5FFF7B7FF0028AD
:100A180048BF10F1000F01BD4DF808EDFFF7F4FFD6
:100A28000CBF012000205DF808FB00BF4DF808ED61
:100A3800FFF7EAFF34BF012000205DF808FB00BF84
:100A48004DF808EDFFF7E0FF94BF012000205DF8A6
:100A580008FB00BF4DF808EDFFF7CEFF94BF01205B
:100A680000205DF808FB00BF4DF808EDFFF7C4FF54
:100A780034BF012000205DF808FB00BF4A0011D2F6
:100A880012F5001211D20DD56FF47873B3EB6252E0
:100A98000ED44FEAC12343F0004343EA505323FAEC
:100AA80002F070474FF00000704750EA013002D161
:100AB8004FF0FF3070474FF00000704753B94AB904
:100AC800002908BF00281CBF4FF0FF314FF0FF304E
:100AD80000F00CB8ADF1080C6DE904CE04F058F93B
:100AE800DDF804E0DDE9022304B07047704700BF79
:100AF8000348044B834202D0034B03B118477047A5
:100B08004C0500204C050020000000000548064B5D
:100B18001B1AD90F01EBA301491002D0034B03B1F3
:100B2800184770474C0500204C05002000000000C5
:100B380010B5064C237843B9FFF7DAFF044B13B11D
:100B48000448AFF300800123237010BD4C0500203A
:100B580000000000AC5A000808B5054B1BB1054958
:100B68000548AFF30080BDE80840FFF7CFBF00BFDE
:100B78000000000050050020AC5A000800B583B002
:100B88001A4B9A6C42F004029A649A6C02F00402BE
:100B98000092009A9A6C42F001029A649B6C03F0EE
:100BA80001030193019B002211460B2001F030F84C
:100BB8000B2001F03DF8002211460C2001F028F826
:100BC8000C2001F035F8002211460D2001F020F824
:100BD8000D2001F02DF8002211460E2001F018F822
:100BE8000E2001F025F803B05DF804FB0010024068
:100BF80008B50F480F4B0360002343608360C36050
:100C08000374437483741022426101228261C261B9
:100C1800026242628262C262026343638363C363A5
:100C280001F008FA00B908BD00F026F9FBE700BF9B
:100C3800680500200064004010B598B00446002103
:100C480013911491159116911791442202A804F05A
:100C5800BFFC22681A4B9A4201D018B010BD4FF45D
:100C6800805302934FF000730E9302A802F014F918
:100C780010BB144B9A6D42F000729A659A6D02F09F
:100C880000720092009ADA6C42F00102DA64DB6CBE
:100C980003F001030193019B4FF4C0531393022304
:100CA80014930023159316930923179313A94FF050
:100CB800904001F0A9FAD0E700F0DEF8D9E700BFCC
:100CC800006400400010024030B58BB00024059449
:100CD80006940794089409942B4BDA6C42F020028E
:100CE800DA64DA6C02F020020192019ADA6C42F0BE
:100CF8000102DA64DA6C02F001020292029ADA6CFA
:100D080042F00202DA64DA6C02F002020392039AF9
:100D1800DA6C42F00402DA64DB6C03F00403049337
:100D2800049B22464FF401414FF0904001F05AFBDA
:100D38000423059306940125079505A94FF09040D3
:100D480001F062FA4FF4815305930694079505A9BB
:100D58000E4801F059FA4FF4807305930695022363
:100D68000793089405A94FF0904001F04DFA4FF40D
:100D78000043059306950794089405A94FF0904001
:100D880001F042FA0BB030BD0010024000040048E8
:100D980008B51548154B0360A3F13D53A3F563232C
:100DA800A3F29F434360002383600122C260036172
:100DB80043618361C361036201F019FB50B90021EB
:100DC800094801F078FB40B90021074801F0A1FB70
:100DD80030B908BD00F050F8F1E700F04DF8F3E73E
:100DE80000F04AF8F5E700BFCC05002000540040A9
:100DF80010B598B0044600211391149115911691DD
:100E08001791442202A804F0E3FB2268174B9A4288
:100E180001D018B010BD4023029302A802F03CF89C
:100E280008BB134CE36C43F00203E364E36C03F088
:100E380002030093009B4FF44073139312231493FF
:100E48000023159316930423179313A9094801F057
:100E5800DBF9A36D43F40013A365A36D03F400133A
:100E68000193019BD5E700F007F8DAE7005400404A
:100E7800001002400004004872B6FEE700B595B0C5
:100E88003822002106A804F0A3FB00230193029353
:100E98000393049305934FF4007001F067FB01235B
:100EA80006934FF48033079302230D9303220E9287
:100EB8000F933C22109211931293139306A801F0FA
:100EC8000FFC70B90F2301930321029100230393B0
:100ED8000493059301A801F0B9FE20B915B05DF897
:100EE80004FBFFF7C9FFFFF7C7FF000070B584B028
:100EF80000F018FEFFF7C2FFFFF7E6FEFFF73EFE21
:100F0800FFF776FEFFF744FF00F038FB00F08CFB9C
:100F180000F0F4F800F0CAFB00F01CFC00F06EFCD6
:100F280000F0A0FC00F0D2FC00F04AF900F01EF935
:100F3800224B1B68ADF80C301B0C8DF80E300C20C2
:100F480004F084F806461E4B01930C2300931D4BB6
:100F58002422012103F0A4FE4FF2FF03ADF808306C
:100F680002A9304603F0D1FE174802F07BFA0025AB
:100F78002C4602E0154B00221A70144B1B78002BEC
:100F8800FBD0304603F0CCFE04EB440105EB4101F5
:100F980003AA0131304603F0ABFE304603F0DFFE12
:100FA8000135062DE6D1631C094CA4FB0324A408D3
:100FB80004EB4404A3EB44040025DBE7C45A00080F
:100FC800C0D40100240900208C080020200600203D
:100FD800ABAAAAAA00B583B00B4B1A6E42F0010265
:100FE8001A661A6E02F001020092009A9A6D42F097
:100FF80080529A659B6D03F080530193019B01F029
:101008003BFB03B05DF804FB00100240FEE7FEE77F
:10101800FEE7FEE7FEE770477047704708B500F047
:1010280091FD08BD08B5024800F06FFF08BD00BF7C
:10103800E806002008B5024800F067FF08BD00BFB9
:101048002806002008B5024800F05FFF08BD00BF71
:101058008806002008B5024800F057FF08BD00BF09
:101068004807002008B5024802F09AFA08BD00BFF8
:101078004008002008B5024802F092FA08BD00BFF7
:101088007009002008B5024802F08AFA08BD00BFBE
:101098002409002008B5044A137801331370034863
:1010A80002F07EFA08BD00BF200600208C08002050
:1010B80010B503460C4A0D490D48006840B10C486C
:1010C80000680344521A934206D8094A136010BDB7
:1010D8000748084C0460F2E704F0DEFA0C230360CA
:1010E8004FF0FF30F3E700BF00800020000400004D
:1010F80024060020880E00207047000000B589B043
:101108000023049305930693079301930293039393
:101118001448154A0260436083604FF6FF72C2604C
:101128000361836102F0C4FB90B94FF480530493C8
:1011380004A90C4802F00CFD68B90023019303933D
:1011480001A9084802F0DCFF40B909B05DF804FBCA
:10115800FFF792FEE9E7FFF78FFEEEE7FFF78CFE59
:10116800F3E700BFD80800200008004000B585B0AC
:1011780000230193029303930F48104A02604FF42F
:101188007A72426083604FF4FA73C360802383618C
:1011980002F08EFB50B900230193039301A906487E
:1011A80002F0AEFF28B905B05DF804FBFFF764FE56
:1011B800F1E7FFF761FEF6E78C0800200014004015
:1011C80000B589B000230493059306930793019310
:1011D800029303931548164A0260436083604FF6F2
:1011E800FF72C260036143618023836102F060FB88
:1011F80090B94FF48053049304A90C4802F0A8FC5A
:1012080068B900230193039301A9084802F078FF05
:1012180040B909B05DF804FBFFF72EFEE9E7FFF7D8
:101228002BFEEEE7FFF728FEF3E700BF400800209B
:101238000040014010B586B004460368B3F1804F02
:1012480012D0644A934241D0634A934267D0634ABA
:10125800934277D0624A934200F0A580614A934254
:1012680000F0AC8006B010BD03F504339A6D42F06F
:1012780001029A659B6D03F001030093009B5A4895
:101288005A4B03603B234360102383600023C360F1
:10129800802202614FF4007242614FF480628261E1
:1012A800C3614FF44053036200F03AFD58B94E4B06
:1012B80023639C62002211461C2000F0A9FC1C201C
:1012C80000F0B6FCCEE7FFF7D7FDF0E7484B9A6D84
:1012D80042F004029A659B6D03F004030193019B9D
:1012E8004448454B03604723436010238360002331
:1012F800C360802202614FF4807242614FF48062C1
:101308008261C3614FF44053036200F009FD18B9CC
:10131800384B23629C62A5E7FFF7AEFDF8E7344B34
:101328009A6D42F020029A659B6D03F020030293A8
:10133800029B00221146372000F06AFC372000F09B
:1013480077FC8FE72A4B1A6E42F480321A661B6EBE
:1013580003F480330393039B2848294B03605123EC
:101368004360102383600023C360802202614FF42E
:10137800807242614FF480628261C3614FF44053CE
:10138800036200F0CDFC58B91C4B63639C620022D9
:101398001146182000F03CFC182000F049FC61E7D9
:1013A800FFF76AFDF0E7124B1A6E42F400321A6634
:1013B8001B6E03F400330493049B53E70C4B1A6E23
:1013C80042F480221A661B6E03F480230593059B62
:1013D80048E700BF000800400014004000400140FA
:1013E80000440140004801404807002044000240F2
:1013F8000010024088060020300002402806002025
:101408001C00024002681C4B9A4200D0704710B57D
:1014180082B0044603F503339A6D42F002029A65DE
:101428009B6D03F002030193019B1448144B036066
:1014380040234360102383600023C360802202613D
:101448004FF4807242614FF480628261C36103622B
:1014580000F066FC60B9094B23639C6200221146C8
:101468001D2000F0D5FB1D2000F0E2FB02B010BDEE
:10147800FFF702FDEFE700BF00040040E806002088
:101488000800024000B58BB000230593069307932C
:10149800089309930368B3F1804F0BD0324A934203
:1014A80020D0324A934231D0314A934245D00BB0D2
:1014B8005DF804FB03F50433DA6C42F00102DA64E8
:1014C800DB6C03F001030193019B082305930223BE
:1014D800069307930123099305A94FF0904000F064
:1014E80093FEE4E7234BDA6C42F00202DA64DB6C29
:1014F80003F002030293029B0223059306930793CA
:10150800099305A91C4800F07FFED0E7194BDA6C57
:1015180042F00102DA64DB6C03F001030393039BDE
:10152800402305930223069307930123099305A9F2
:101538004FF0904000F068FEB9E70E4BDA6C42F0CD
:101548000102DA64DB6C03F001030493049B80233B
:1015580005930223069307930123099305A94FF0E6
:10156800904000F051FEA2E7000400400044014012
:1015780000480140001002400004004800B58FB048
:1015880000230A930B930C930D93079308930993E5
:1015980000930193029303930493059306932148C0
:1015A8004FF080420260436083604FF0FF32C260B8
:1015B8000361836102F07CF928BB4FF480530A93DE
:1015C8000AA9184802F0C4FA00BB164802F0A0F9AC
:1015D800F8B900230793099307A9124802F090FD70
:1015E800D0B96023009300230193029304930C2243
:1015F80069460C4802F002FA88B90A48FFF742FF28
:101608000FB05DF804FBFFF737FCD6E7FFF734FCB3
:10161800DBE7FFF731FCDCE7FFF72EFCE1E7FFF73C
:101628002BFCEAE77009002000B58BB00023079374
:1016380008930993009301930293039304930593EA
:1016480006931848184A0260436083604FF6FF7299
:10165800C2600361836102F05BF9C8B90023079394
:10166800099307A90F4802F04BFDA0B96023009326
:1016780000230193029304930C226946094802F05F
:10168800BDF958B90748FFF7FDFE0BB05DF804FB3C
:10169800FFF7F2FBE2E7FFF7EFFBE7E7FFF7ECFB0B
:1016A800F0E700BF240900200004004010B594B002
:1016B80000240D940E940F94109411941294139482
:1016C80034222146684603F083FF2048204B0360FC
:1016D800446084604FF6FF73C360046144618461B1
:1016E80002F0E6F830BB194802F012F928BB602373
:1016F8000D9300220E920F92109211921292139251
:101708000DA9124802F07AF9D0B900230093019389
:101718000293039304934FF40052059206930C939B
:1017280069460A4802F036FD68B90848FFF7AAFE7C
:1017380014B010BDFFF7A0FBD5E7FFF79DFBD6E778
:10174800FFF79AFBE1E7FFF797FBEEE7F4070020C6
:101758000044014010B594B000240D940E940F94E9
:10176800109411941294139434222146684603F07D
:101778002FFF2048204B0360446084604FF6FF73BE
:10178800C36004614461846102F092F830BB194877
:1017980002F0BEF828BB60230D9300220E920F9230
:1017A80010921192129213920DA9124802F026F982
:1017B800D0B90023009301930293039304934FF449
:1017C8000052059206930C9369460A4802F0E2FC1F
:1017D80068B90848FFF756FE14B010BDFFF74CFB78
:1017E800D5E7FFF749FBD6E7FFF746FBE1E7FFF749
:1017F80043FBEEE7A80700200048014008B517485A
:10180800174B03604FF4E133436000238360C360E8
:1018180003610C2242618361C36103624362836294
:1018280002F0F3FF70B900210C4803F066F860B9C4
:1018380000210A4803F086F850B9084803F03EF83A
:1018480048B908BDFFF718FBEDE7FFF715FBEFE711
:10185800FFF712FBF1E7FFF70FFBF2E7E40A0020BE
:101868000038014008B51748174B03604FF4E133BF
:10187800436000238360C36003610C22426183617B
:10188800C36103624362836202F0BFFF70B9002143
:101898000C4803F032F860B900210A4803F052F806
:1018A80050B9084803F00AF848B908BDFFF7E4FA48
:1018B800EDE7FFF7E1FAEFE7FFF7DEFAF1E7FFF709
:1018C800DBFAF2E7500A00200044004008B5174848
:1018D800174B03604FF4E133436000238360C36018
:1018E80003610C2242618361C361036243628362C4
:1018F80002F08BFF70B900210C4802F0FEFF60B9BE
:1019080000210A4803F01EF850B9084802F0D6FF33
:1019180048B908BDFFF7B0FAEDE7FFF7ADFAEFE712
:10192800FFF7AAFAF1E7FFF7A7FAF2E7BC090020E8
:101938000048004010B59CB004460021179118914A
:1019480019911A911B91442206A803F041FE2368BD
:10195800454A934207D0454A934230D0444A93427D
:1019680057D01CB010BD0123069306A801F094FAC5
:1019780010BB404B1A6E42F480421A661A6E02F48B
:1019880080420092009ADA6C42F00102DA64DB6C61
:1019980003F001030193019B4FF4C06317930223E3
:1019A8001893002319931A9307231B9317A94FF031
:1019B800904000F029FCD4E7FFF75EFAD9E702234C
:1019C800069306A801F068FA00BB2A4B9A6D42F408
:1019D80000329A659A6D02F400320292029ADA6C29
:1019E80042F00202DA64DB6C03F002030393039B08
:1019F8001823179302231893002319931A93072384
:101A08001B9317A91C4800F0FFFBAAE7FFF734FA5D
:101A1800DBE70423069306A801F03EFA08BB154B42
:101A28009A6D42F480229A659A6D02F4802204929B
:101A3800049ADA6C42F00402DA64DB6C03F0040303
:101A48000593059B4FF440631793022318930023D3
:101A580019931A9307231B9317A9084800F0D4FB7E
:101A68007FE7FFF709FADAE7003801400044004051
:101A780000480040001002400004004800080048E8
:101A88000D488546FFF738FB0C480D490D4A0023E1
:101A980002E0D458C4500433C4188C42F9D30A4A1B
:101AA8000A4C002301E013600432A242FBD303F086
:101AB800F9FDFFF71BFAFEE7008000200000002078
:101AC8004C0500201C5B00084C050020880E0020F7
:101AD800FEE70000104B1B680BB90120704710B5DA
:101AE80004464FF47A70B0FBF3F30C4A1068B0FB6D
:101AF800F3F000F0A1F868B90F2C01D901200AE031
:101B0800002221464FF0FF3000F082F8044B1C60A1
:101B1800002000E0012010BD04000020000000208B
:101B28000800002010B5032000F060F80F20FFF730
:101B3800D1FF10B10124204610BD0446FFF74AFA30
:101B4800F9E70000034A1368034909680B44136066
:101B5800704700BF780B002004000020014B186874
:101B6800704700BF780B0020002807DB00F01F0239
:101B7800400901239340024A42F82030704700BFD1
:101B880000E100E0002808DB0901C9B200F160406B
:101B980000F5614080F80013704700F00F0009015C
:101BA800C9B2014B1954704714ED00E000B500F0BC
:101BB8000700C0F1070CBCF1040F28BF4FF0040C5C
:101BC800031D062B0FD9C31E4FF0FF3E0EFA0CF073
:101BD80021EA000199400EFA03FE22EA0E0241EAC8
:101BE80002005DF804FB0023EEE70000074AD36813
:101BF80023F4E0631B041B0C000200F4E0600343C1
:101C080043F0BF6343F40033D360704700ED00E056
:101C180010B50446054BD868C0F30220FFF7C6FF8D
:101C280001462046FFF7AEFF10BD00BF00ED00E003
:101C380008B5FFF799FF08BD0138B0F1807F0BD2D6
:101C48004FF0E0235861054AF02182F82310002064
:101C5800986107221A6170470120704700ED00E083
:101C680010B4C46CD0F850C0C4F804C0446D24B19A
:101C7800846DD0F85CC0C4F804C0446C04F01F0C38
:101C8800012404FA0CF4D0F840C0CCF804400468ED
:101C980063608368102B05D0036899600368DA6075
:101CA80010BC704703689A600368D960F8E70000C1
:101CB80003680C4A934213D80B49DBB2083B0B4A22
:101CC800A2FB0323426C22F003020A448264084AFE
:101CD800C264C3F30413012202FA03F303657047D5
:101CE8000449EAE70704024000080240CDCCCCCC06
:101CF80080080240200802400379074A1A449200EB
:101D08004265064A8265013B03F01F03012202FA7D
:101D180003F3C365704700BF3F82001040090240CB
:101D280000285BD010B5044601682D4B99423DD878
:101D38002C4B0B442C4AA2FB03231B099B00436436
:101D48002A4B0364022384F825300A6822F4FF42F0
:101D580022F07002A368E0680343206903436069C6
:101D68000343A0690343E0690343206A0343134321
:101D78000B602046FFF79CFFA368B3F5804F20D087
:101D8800A36C22791A60E36C226D5A606368013B88
:101D9800032B19D900236365A365E3650020E0637D
:101DA800012384F8253084F8240010BD104B0B441F
:101DB8000D4AA2FB03231B099B0043640D4B0364DC
:101DC800C0E700236360DBE72046FFF795FF636DFC
:101DD80000221A60A36DE26D5A60DFE701207047A8
:101DE80007040240F8FFFDBFCDCCCCCC0000024078
:101DF800F8FBFDBF0004024038B5044690F8240003
:101E0800012841D0012084F8240094F82500C0B2AC
:101E1800012804D0002384F82430022038BD022091
:101E280084F825000020E0632568286820F0010078
:101E380028602046FFF714FF236BD3B1226813688C
:101E480043F00E031360A36C1A6812F4803F03D0AA
:101E58001A6842F480721A60636D1BB11A6842F402
:101E680080721A602268136843F00103136000202F
:101E7800D4E72268136823F0040313602268136808
:101E880043F00A031360DEE70220C7E708B590F8BD
:101E98002530DBB2022B09D00423C363012380F869
:101EA8002530002280F82420184608BD02681368EF
:101EB80023F00E0313600268136823F00103136014
:101EC800826C136823F480731360436C03F01F0261
:101ED800016C012393404B60C36C026D5A60436DE3
:101EE80033B11A6822F480721A60836DC26D5A6029
:101EF800012380F82530002380F82430836B13B148
:101F080098470020D1E70020CFE738B5036C19685F
:101F180004682568436C03F01F0304229A400A42B0
:101F280015D015F0040F12D0236813F0200F03D139
:101F3800236823F004032360436C03F01F02016C41
:101F4800042393404B60036B03B1984738BD0222CA
:101F58009A400A421CD015F0020F19D0236813F0DA
:101F6800200F06D1236823F00A032360012380F899
:101F78002530436C03F01F02016C022393404B6031
:101F8800002380F82430C36A002BDFD09847DDE7B0
:101F9800082202FA03F30B42D8D015F0080FD5D067
:101FA800236823F00E032360436C03F01F03016CC6
:101FB800012202FA03F34B60C26380F82520002354
:101FC80080F82430436B002BC0D09847BEE7000050
:101FD800144B03640168D1F8802022F4F812D0F879
:101FE80034C042EA0C42C1F880200F4A42640168BA
:101FF800D1F8802022F07062D0F838C042EA0C6232
:10200800C1F88020094A8264D832C264D832026595
:102018001832426502E0002243F8042B044A934236
:10202800F9D9704700A4004070A40040B0A4004053
:102038004FA70040002800F0E38038B5044690F828
:102048005C30D3B12268936923F010039361FFF7E2
:1020580085FD054623689A6912F0080F12D0FFF72C
:102068007DFD401B0A28F5D9236E43F00103236642
:10207800032384F85C30012038BD80F85D30FEF71A
:10208800DBFDDFE79A6942F001029A61FFF766FD1E
:10209800054623689A6912F0010F0DD1FFF75EFD1E
:1020A800401B0A28F5D9236E43F001032366032356
:1020B80084F85C300120DFE79A6942F002029A61F5
:1020C8002268504B9A4242D0237C012B45D022688B
:1020D800936943F040039361637C012B43D02268EA
:1020E800936923F480439361A37C012B41D0226838
:1020F800936943F4805393612268936923F440738E
:10210800A1680B4393612268936923F0A403936148
:102118002268136923F010031361E368012B2ED0A2
:10212800002B31D0022B54D02268936943F08003EE
:1021380093612268136943F010031361E368032B6A
:1021480022D12268936943F0200393611CE06268FE
:10215800A3F58063C3F80025B6E72268936923F0E6
:1021680040039361B8E72268936943F4804393611D
:10217800BAE72268936923F480539361BCE7226825
:10218800936943F004039361A3695A1EE369013B11
:102198001B0243EA4263226A013A13436269013A25
:1021A800216843EA0243CB61A368B3F5407F16D0A8
:1021B8002268D2F8C030E16B0B43C2F8C030204629
:1021C800FFF706FF0020A0652066012384F85C3035
:1021D80052E72268936943F020039361D4E7A36A26
:1021E800013BE26A013A43EA0223226B013A43EADD
:1021F8000213626A013A216843EA0243CB60D7E7D7
:10220800012070470064004070B582B0002365E08B
:1022180085685E000324B44025EA0405CC68B44010
:102228002C438460456825EA0C054C68C4F3001407
:102238009C402C43446062E0DD08083550F8254096
:1022480003F0070C4FEA8C0C4FF00F0E0EFA0CFE41
:1022580024EA0E0E0C6904FA0CF444EA0E0440F861
:10226800254063E0052400E0002404FA0EF42C4322
:102278000CF1020C574D45F82C40574CA568D44337
:1022880025EA0206D1F804C01CF4801F01D042EAF6
:102298000506514DAE60ED6804EA0506D1F804C0A4
:1022A8001CF4001F01D042EA05064B4DEE606D6834
:1022B80004EA0506D1F804C01CF4003F01D042EA44
:1022C8000506454D6E602D682C404E6816F4803F1B
:1022D80001D042EA0504404A146001330A6832FA20
:1022E80003F474D04FF0010C0CFA03FC1CEA020250
:1022F800F3D04C6804F00304013C012C88D94C68E5
:1023080004F00304032C0CD0C4685D004FF0030CE8
:102318000CFA05FC24EA0C0C8C68AC4044EA0C046A
:10232800C4604C6804F00304022C85D004684FEAAA
:10233800430E4FF0030C0CFA0EFC24EA0C0C4C680C
:1023480004F0030404FA0EF444EA0C0404604C6834
:1023580014F4403FC1D0214C256E45F00105256697
:10236800246E04F001040194019C4FEA930C0CF1D3
:102378000205184C54F8255003F0030E4FEA8E0E50
:102388000F2404FA0EF425EA0405B0F1904F3FF447
:102398006BAF134CA04212D004F58064A04210D059
:1023A80004F58064A0420ED004F58064A0420CD0ED
:1023B80004F58064A0423FF455AF062455E7012494
:1023C80053E7022451E703244FE704244DE702B002
:1023D80070BD00BF00000140000401400010024031
:1023E800000400480AB18161704781627047002883
:1023F8005FD010B5044690F84130002B48D0242314
:1024080084F841302268136823F00103136063687D
:10241800226823F0706313612268936823F40043F1
:102428009360E368012B38D0A368226843F404431F
:102438009360E368022B36D02268536823F4006364
:1024480053602268536843F0007343F400435360B9
:102458002268D36823F40043D36023696269134375
:10246800A169226843EA0123D360E369216A2268EB
:102478000B4313602268136843F0010313600020C4
:102488006064202384F84130206384F8420010BD42
:1024980080F84030FEF7ACFCB1E7A368226843F44B
:1024A80000439360C5E72268536843F400635360B0
:1024B800C7E701207047034690F84120D2B2202A8E
:1024C80023D190F84020012A21D0012280F8402011
:1024D800242280F841200068026822F0010202608C
:1024E8001868026822F48052026018680268114372
:1024F800016019680A6842F001020A60202283F824
:102508004120002083F840007047022070470220D5
:102518007047034690F84120D2B2202A21D190F882
:102528004020012A1FD0012280F84020242280F870
:1025380041200068026822F00102026018680268FF
:1025480022F4706242EA0122026019680A6842F0C5
:1025580001020A60202283F84120002083F840000D
:10256800704702207047022070470000002836D1CB
:102578003E4B1B6803F4C063B3F5806F08D03B4A39
:10258800D2F8803023F48073C2F88030002070477E
:10259800364AD2F8803023F48073C2F8803013684A
:1025A80023F4C06343F400731360314B1B68322279
:1025B80002FB03F32F4AA2FB03239B0C013300E029
:1025C800013B2A4A526912F4806F01D0002BF7D1DF
:1025D800264B5B6913F4806F44D100207047B0F537
:1025E800007F08D0214A136823F4C06343F4806352
:1025F8001360002070471D4B1B6803F4C063B3F5DC
:10260800806F08D0194AD2F8803043F48073C2F83A
:10261800803000207047154AD2F8803043F4807328
:10262800C2F88030136823F4C06343F40073136066
:102638000F4B1B68322202FB03F30E4AA2FB032353
:102648009B0C013300E0013B084A526912F4806F89
:1026580001D0002BF7D1054B5B6913F4806F03D1D0
:102668000020704703207047032070470070004027
:102678000000002083DE1B43024A936843F4804332
:102688009360704700700040124BDA6802F0030252
:10269800DB68C3F303130133032A11D00E48B0FBE0
:1026A800F3F00C4BDB68C3F3062303FB00F0094B84
:1026B800DB68C3F3416301335B00B0FBF3F07047A1
:1026C8000648B0FBF3F0034BDB68C3F3062303FBB8
:1026D80000F0ECE7001002400024F40000127A0039
:1026E800002800F04F8270B582B00446036813F0EA
:1026F800010F37D0A44A936803F00C03D26802F0A4
:1027080003020C2B23D0082B23D06368B3F5803F3A
:102718004ED0B3F5A02F51D09B4B1A6822F48032CB
:102728001A601A6822F480221A606368002B52D05B
:10273800FFF714FA0546944B1B6813F4003F11D1B8
:10274800FFF70CFA401B6428F5D9032023E2032A7B
:10275800D9D18D4B1B6813F4003F03D06368002B5D
:1027680000F01282236813F0020F5DD0864A936846
:1027780003F00C03D26802F003020C2B3AD0042BAE
:102788003AD0E368002B75D07F4A136843F480730E
:102798001360FFF7E3F905467B4B1B6813F4806F62
:1027A8005FD1FFF7DBF9401B0228F5D90320F2E1DE
:1027B800754A136843F480331360B6E703F1804326
:1027C800A3F53C331A6842F480221A601A6842F46E
:1027D80080321A60A9E7FFF7C1F905466A4B1B6802
:1027E80013F4003FBED0FFF7B9F9401B6428F5D9B0
:1027F8000320D0E1022AC2D1634B1B6813F4806F17
:1028080003D0E368002B00F0C1815F4A536823F0CE
:10281800FE43216943EA016353605C4B1868FFF784
:1028280059F9002840F0B481236813F0080F4CD000
:1028380063699BB3544AD2F8943043F00103C2F859
:102848009430FFF78BF905464F4BD3F8943013F0CB
:10285800020F3AD1FFF782F9401B0228F4D903206E
:1028680099E1494A536823F0FE43216943EA016329
:102878005360D9E7444A136823F480731360FFF761
:102888006DF90546404B1B6813F4806FCCD0FFF7F9
:1028980065F9401B0228F5D903207CE13A4AD2F8B1
:1028A800943023F00103C2F89430FFF757F9054636
:1028B800354BD3F8943013F0020F06D0FFF74EF9DA
:1028C800401B0228F4D9032065E1236813F0040FA4
:1028D80000F081802C4B9B6D13F0805F36D12A4B22
:1028E8009A6D42F080529A659B6D03F08053019374
:1028F800019B0125264B1B6813F4807F28D0A36811
:10290800012B39D0052B45D01F4BD3F8902022F04E
:102918000102C3F89020D3F8902022F00402C3F8F3
:102928009020A368002B43D0FFF718F90646164BF2
:10293800D3F8903013F0020F4CD1FFF70FF9801B3A
:1029480041F288339842F2D9032024E10025D1E7E7
:102958000F4A136843F480731360FFF7FFF80646C5
:102968000B4B1B6813F4807FC9D1FFF7F7F8801B66
:102978000228F5D903200EE1034AD2F8903043F03B
:102988000103C2F89030CCE7001002400800002094
:1029980000700040884BD3F8902042F00402C3F83E
:1029A8009020D3F8902042F00102C3F89020B8E7B5
:1029B800FFF7D4F80646804BD3F8903013F0020F97
:1029C80008D0FFF7CBF8801B41F288339842F2D940
:1029D8000320E0E0E5B9236813F0200F35D0A369A0
:1029E800E3B1754AD2F8983043F00103C2F8983041
:1029F800FFF7B4F80546704BD3F8983013F0020F80
:102A080023D1FFF7ABF8401B0228F4D90320C2E01A
:102A1800694A936D23F080539365DCE7664AD2F8E0
:102A2800983023F00103C2F89830FFF797F805466D
:102A3800614BD3F8983013F0020F06D0FFF78EF8E9
:102A4800401B0228F4D90320A5E0E369002B00F01D
:102A5800A180594A926802F00C020C2A64D0022B19
:102A680013D0554A136823F080731360FFF776F884
:102A78000446514B1B6813F0007F4ED0FFF76EF8E9
:102A8800001B0228F5D9032085E04B4A136823F080
:102A980080731360FFF762F80546474B1B6813F015
:102AA800007F06D0FFF75AF8401B0228F5D903200B
:102AB80071E0414AD36841491940236A606A013884
:102AC80043EA0013A06A43EA0023206B4008013858
:102AD80043EA4053606B4008013843EA4063E06AC8
:102AE80043EAC0631943D160136843F080731360ED
:102AF800D36843F08073D360FFF730F804462E4B59
:102B08001B6813F0007F06D1FFF728F8001B022886
:102B1800F5D903203FE000203DE0274AD168284B43
:102B28000B40D360002036E0012B36D0224BDB6807
:102B380003F00301226A914231D103F0F002616A85
:102B48000139B2EB011F2CD103F4FE42A16AB2EBAA
:102B5800012F28D103F07842E16AB2EBC16F24D18A
:102B680003F4C001226B5208013AB1EB425F1ED157
:102B780003F0C063626B5208013AB3EB426F18D19D
:102B8800002008E001207047012004E0012002E055
:102B9800012000E0002002B070BD0120FBE7012009
:102BA800F9E70120F7E70120F5E70120F3E7012025
:102BB800F1E70120EFE700BF001002400C809F0101
:102BC800FCFFEEFE1E4B9B6803F00C03042B33D076
:102BD8001B4B9B6803F00C03082B2FD0184B9B68EA
:102BE80003F00C030C2B01D000207047144BDA685B
:102BF80002F00302DB68C3F303130133032A11D085
:102C08001048B0FBF3F00E4BDB68C3F3062303FB5D
:102C180000F00B4BDB68C3F3416301335B00B0FB8F
:102C2800F3F070470848B0FBF3F0054BDB68C3F3DB
:102C3800062303FB00F0ECE70248704702487047A0
:102C4800001002400024F40000127A00002800F06E
:102C5800E680F8B50C460546744B1B6803F00F0375
:102C68008B420BD2714A136823F00F030B43136096
:102C7800136803F00F038B4240F0D3802E6816F0E0
:102C880001065FD06B68032B2FD0022B4DD0684B09
:102C98001B6813F4806F00F0C680FFF793FF654B45
:102CA80098424DD9624A936823F0F00343F08003B9
:102CB800936080265E4A936823F0030369680B4398
:102CC8009360FEF74BFF0746594B9B6803F00C03D4
:102CD8006A68B3EB820F35D0FEF740FFC01B41F2A4
:102CE80088339842F0D9032078E0514B1B6813F0E1
:102CF800007F01D1012071E0FFF7C6FC4D4B9842DF
:102D08001AD94B4B9B6813F0F00F05D02E6816F0BC
:102D18000206CFD0AB688BB9454A936823F0F0031D
:102D280043F0800393608026C4E7414B1B6813F48B
:102D3800003FB2D1012051E00026BBE70026B9E7E9
:102D48000026B7E72B6813F0020F48D013F0040FE2
:102D580004D0374A936843F4E06393602B6813F018
:102D6800080F06D0324A936823F47C5343F4E06397
:102D780093602F4A936823F0F003A9680B4393608C
:102D88002A4B1B6803F00F03A34230D82B6813F0BB
:102D9800040F06D0264A936823F4E063E9680B43DE
:102DA80093602B6813F0080F07D0214A936823F427
:102DB8006053296943EAC1039360FFF703FF1C4B83
:102DC8009B68C3F303131C4AD35C03F01F03D8406A
:102DD8001A4B18601A4B1868FEF77CFEF8BD802E57
:102DE800CED1134A936823F0F0039360C8E70F4AE3
:102DF800136823F00F0323431360FEF7AFFE064664
:102E08000A4B1B6803F00F03A342BFD0FEF7A6FED0
:102E1800801B41F288339842F2D90320DEE7012073
:102E280070470120DAE70120D8E700BF0020024000
:102E38000010024000B4C404D05A0008000000206A
:102E480008000020014B1868704700BF00000020F0
:102E580008B5FFF7F7FF054B9B68C3F30223044A45
:102E6800D35C03F01F03D84008BD00BF0010024028
:102E7800C85A000808B5FFF7E5FF054B9B68C3F380
:102E8800C223044AD35C03F01F03D84008BD00BF27
:102E980000100240C85A0008F0B583B00446036821
:102EA80013F4002F69D0AE4B9B6D13F0805F1ED1D9
:102EB800AB4B9A6D42F080529A659B6D03F080533C
:102EC8000193019B0126A74A136843F4807313609A
:102ED800FEF744FE0546A34B1B6813F4807F08D118
:102EE800FEF73CFE401B0228F5D9032502E0002628
:102EF800E9E7002545BB9A4BD3F8903013F44073AB
:102F080015D0226C9A4212D0954AD2F8903023F408
:102F18004073D2F8901041F48031C2F89010D2F882
:102F2800901021F48031C2F89010C2F8903013F05C
:102F3800010F10D145B98A4AD2F8903023F4407372
:102F4800216C0B43C2F89030C6B1854A936D23F0CB
:102F58008053936512E0FEF701FE0746804BD3F8D5
:102F6800903013F0020FE5D1FEF7F8FDC01B41F2D7
:102F780088339842F2D90325DCE70025236813F04B
:102F8800010F08D0764AD2F8883023F0030361682D
:102F98000B43C2F88830236813F0020F08D0704A38
:102FA800D2F8883023F00C03A1680B43C2F88830AC
:102FB800236813F0040F08D0694AD2F8883023F048
:102FC8003003E1680B43C2F88830236813F0080F18
:102FD80008D0634AD2F8883023F0C00321690B4334
:102FE800C2F88830236813F0200F08D05C4AD2F862
:102FF800883023F4406361690B43C2F88830236842
:1030080013F0400F08D0564AD2F8883023F44053C2
:10301800A1690B43C2F88830236813F0800F08D0E9
:103028004F4AD2F8883023F44043E1690B43C2F891
:103038008830236813F4807F08D0494AD2F8883052
:1030480023F44033216A0B43C2F88830236813F411
:10305800007F08D0424AD2F8883023F44023616ABE
:103068000B43C2F88830236813F4806F0CD03C4AB5
:10307800D2F8883023F44013A16A0B43C2F8883091
:10308800A36AB3F5801F57D0236813F4006F0CD0E0
:10309800334AD2F8883023F44003E16A0B43C2F87C
:1030A8008830E36AB3F5800F4BD0236813F4805F50
:1030B8000CD02B4AD2F8883023F04073216B0B4395
:1030C800C2F88830236BB3F1807F3FD0236813F4B4
:1030D800005F0CD0224AD2F8883023F04063616B3D
:1030E8000B43C2F88830636BB3F1006F33D02368A9
:1030F80013F4804F0CD01A4AD2F8883023F040637A
:10310800A16B0B43C2F88830A36BB3F1006F2BD0CF
:10311800236813F4004F0CD0114AD2F8883023F0FA
:103128004053E16B0B43C2F88830E36BB3F1805F27
:103138001FD0284603B0F0BDD36843F48013D36092
:10314800A2E7D36843F48013D360AEE7D36843F4AF
:103158008013D360BAE7D36843F48013D360C6E71B
:103168000010024000700040D36843F48013D3601D
:10317800CEE7D36843F48033D360DAE730B4026A29
:10318800036A23F0010303624468836923F48033EC
:1031980023F073030D681D4322F002028B6813436A
:1031A8001C4A90420FD002F5006290420BD002F503
:1031B8004062904207D002F58062904203D002F547
:1031C8008062904205D123F00803CA681A4322F0AE
:1031D8000403104A90420FD002F5006290420BD0CF
:1031E80002F54062904207D002F58062904203D017
:1031F80002F58062904205D124F440744A69224362
:103208008C691443446085614A684263036230BC38
:10321800704700BF002C014030B4036A026A22F4F0
:10322800807202624468C26922F4803222F073021A
:103238000D68154323F400738A6843EA0223184A89
:10324800904203D002F50062904206D123F4006355
:10325800CA6843EA022323F48063114A90420FD0DC
:1032680002F5006290420BD002F54062904207D00E
:1032780002F58062904203D002F58062904207D145
:1032880024F440524C6942EA04128C6942EA04145C
:103298004460C5614A68C263036230BC704700BFBE
:1032A800002C014030B4036A026A22F480520262A0
:1032B8004468C26922F0807222F4E6420D6842EA4C
:1032C800052223F400538D6843EA0533174DA842BD
:1032D80003D005F50065A84206D123F40043CD6864
:1032E80043EA053323F48043104DA8420FD005F577
:1032F8000065A8420BD005F54065A84207D005F542
:103308008065A84203D005F58065A84207D124F45A
:10331800404C4C694CEA841C8C694CEA8414446027
:10332800C2614A680264036230BC7047002C0140E5
:1033380030B4036A026A22F4803202624468026D81
:1033480022F4803222F070020D68154323F4003312
:103358008A6843EA02430F4A90420FD002F500629E
:1033680090420BD002F54062904207D002F580628D
:10337800904203D002F58062904204D124F4803454
:103388004A6944EA0224446005654A688264036223
:1033980030BC7047002C014030B4036A026A22F442
:1033A800801202624468026D22F0807222F4E042C8
:1033B8000D6842EA052223F400138D6843EA055399
:1033C8000F4DA8420FD005F50065A8420BD005F5B2
:1033D8004065A84207D005F58065A84203D005F5E9
:1033E8008065A84204D124F480244D6944EA8524E8
:1033F800446002654A68C264036230BC704700BF1B
:10340800002C014010B4036A046A24F00104046229
:10341800846924F0F00C4CEA021223F00A030B43EF
:103428008261036210BC704710B4036A046A24F016
:1034380010040462846924F4704C4CEA023223F0CC
:10344800A00343EA01138261036210BC70478368DA
:1034580023F4401323F070030B4343F00703836006
:103468007047000090F83D30DBB2012B32D10223C7
:1034780080F83D300268D36843F00103D3600368E5
:10348800174A934218D0B3F1804F15D0A2F5943261
:10349800934211D002F5806293420DD002F5963224
:1034A800934209D002F54062934205D01A6842F06F
:1034B80001021A600020704799680A4A0A40062AE1
:1034C8000AD0B2F5803F09D01A6842F001021A60AA
:1034D8000020704701207047002070470020704787
:1034E800002C01400700010070477047704710B575
:1034F800846A636A83420ED0A36A834214D0E36A63
:1035080083421AD0236B834220D0204601F040FA30
:103518000023237710BD01232377C369002BF4D13F
:10352800012384F83E30F0E702232377C369002B98
:10353800EBD1012384F83F30E7E704232377C369FD
:10354800002BE2D1012384F84030DEE708232377FB
:10355800C369002BD9D1012384F84130D5E77047DE
:1035680010B5846A636A83420BD0A36A834210D081
:10357800E36A834210D0236B834204D10823237764
:1035880001E0012323772046FFF7E9FF0023237793
:1035980010BD02232377F6E704232377F3E7704768
:1035A80070B505460368DE681C6914F0020F10D078
:1035B80016F0020F0DD06FF002021A610123037793
:1035C80003689B6913F0030F7CD0FFF78FFF00237C
:1035D8002B7714F0040F12D016F0040F0FD02B68BD
:1035E8006FF004021A6102232B772B689B6913F48E
:1035F800407F6DD02846FFF779FF00232B7714F022
:10360800080F12D016F0080F0FD02B686FF00802C1
:103618001A6104232B772B68DB6913F0030F5ED044
:103628002846FFF763FF00232B7714F0100F12D002
:1036380016F0100F0FD02B686FF010021A610823D4
:103648002B772B68DB6913F4407F4FD02846FFF7B0
:103658004DFF00232B7714F0010F02D016F0010F55
:103668004BD114F4025F02D016F0800F4DD114F440
:10367800807F02D016F0800F4FD114F0400F02D097
:1036880016F0400F51D114F0200F02D016F0200F81
:1036980053D114F4801F02D016F4801F55D114F4AE
:1036A800001F02D016F4001F57D114F4800F02D067
:1036B80016F4800F59D114F4000F02D016F4000F3D
:1036C8005BD170BDFFF711FF284601F061F97EE775
:1036D8002846FFF70AFF284601F05AF98DE72846E1
:1036E800FFF703FF284601F053F99CE72846FFF748
:1036F800FCFE284601F04CF9ABE72B686FF001029D
:103708001A612846FFF7F0FEABE72B686FF4025208
:103718001A61284600F08DFDA9E72B686FF48072C6
:103728001A61284600F086FDA7E72B686FF0400273
:103738001A612846FFF733FFA5E72B686FF02002D0
:103748001A61284600F074FDA3E72B686FF4801215
:103758001A61284600F06FFDA1E72B686FF400128C
:103768001A61284600F068FD9FE72B686FF4800215
:103778001A61284600F061FD9DE72B686FF400028E
:103788001A61284600F05AFD9BE7704710B5846A15
:10379800636A83420CD0A36A834213D0E36A8342EC
:1037A80016D0236B834219D0012384F83D3003E0FF
:1037B8000123237784F83E302046FFF7E6FF0023F5
:1037C800237710BD02232377012384F83F30F3E7E2
:1037D80004232377012384F84030EDE70823237777
:1037E800012384F84130E7E70368304A90420ED05D
:1037F800B0F1804F0BD0A2F59432904207D002F579
:103808008062904203D002F59632904203D123F0B1
:1038180070034A681343254A90421AD0B0F1804F8A
:1038280017D0A2F59432904213D002F580629042EC
:103838000FD002F5963290420BD002F540629042CA
:1038480007D002F58062904203D002F58062904270
:1038580003D123F44073CA68134323F080034A69F1
:10386800134303608B68C3620B6883620F4B9842F3
:103878000FD003F5006398420BD003F540639842DC
:1038880007D003F58063984203D003F5806398421C
:1038980001D10B69036301234361036913F0010F2D
:1038A80003D0036923F0010303617047002C014032
:1038B80060B310B5044690F83D3013B3022384F882
:1038C8003D30214651F8040BFFF78EFF012384F8A1
:1038D800483084F83E3084F83F3084F8403084F82B
:1038E800413084F8423084F8433084F8443084F816
:1038F800453084F8463084F8473084F83D3000205D
:1039080010BD80F83C30FDF795FCD7E701207047E3
:1039180060B310B5044690F83D3013B3022384F821
:103928003D30214651F8040BFFF75EFF012384F870
:10393800483084F83E3084F83F3084F8403084F8CA
:10394800413084F8423084F8433084F8443084F8B5
:10395800453084F8463084F8473084F83D300020FC
:1039680010BD80F83C30FDF74DFDD7E701207047CA
:1039780030B4036A026A22F0100202624468826963
:1039880022F0807222F4E6420D6842EA052223F012
:1039980020038D6843EA0513174DA84203D005F5A7
:1039A8000065A84206D123F08003CD6843EA0513D9
:1039B80023F04003104DA8420FD005F50065A8423A
:1039C8000BD005F54065A84207D005F58065A842EB
:1039D80003D005F58065A84207D124F4406C4C69F2
:1039E8004CEA840C8C694CEA8404446082614A681D
:1039F8008263036230BC7047002C014038B590F8F0
:103A08003C30012B00F0958004460D46012380F8D8
:103A18003C30142A00F28880DFE802F00B868686A4
:103A28001F86868634868686488686865D8686864E
:103A380071000068FFF7A2FB2268936943F008034E
:103A480093612268936923F0040393612268936960
:103A580029690B439361002067E00068FFF788FF3E
:103A68002268936943F4006393612268936923F49D
:103A78008063936122689369296943EA012393610A
:103A8800002052E00068FFF7C7FB2268D36943F0C3
:103A98000803D3612268D36923F00403D361226841
:103AA800D36929690B43D36100203EE00068FFF722
:103AB800F9FB2268D36943F40063D3612268D369B0
:103AC80023F48063D3612268D369296943EA012317
:103AD800D361002029E00068FFF72AFC2268136DF3
:103AE80043F0080313652268136D23F0040313657C
:103AF8002268136D29690B431365002015E00068DF
:103B0800FFF74AFC2268136D43F4006313652268CB
:103B1800136D23F4806313652268136D296943EAE2
:103B280001231365002000E00120002384F83C30C5
:103B380038BD0220FCE710B4846824F47F4C42EAC4
:103B480003220A4342EA0C02826010BC704700005C
:103B580090F83C30012B00F08F8010B5044601230B
:103B680080F83C30022380F83D3002689068434B6F
:103B7800034093600B68702B55D031D8502B6CD014
:103B88000CD9602B2AD1CA6849682068FFF74CFC19
:103B980060212068FFF75BFC002035E0402B0AD14C
:103BA800CA6849682068FFF72DFC40212068FFF7A4
:103BB8004EFC002028E05BD8202B07D003D9302BFF
:103BC80004D0012020E00BB1102B05D11946206844
:103BD800FFF73DFC002017E0012015E0012013E06D
:103BE800B3F5005F2CD00BD9254A9342EED012D9F9
:103BF800244A9342EAD030329342E7D0012003E0CE
:103C0800B3F5805F36D10020012384F83D300023CE
:103C180084F83C3010BDB3F1101FD7D0103A93424E
:103C2800D4D00120F0E7CB684A6889682068FFF79C
:103C380082FF2268936843F0770393600020E3E7EC
:103C4800CB684A6889682068FFF775FF226893681F
:103C580043F4804393600020D6E7CA684968206827
:103C6800FFF7D0FB50212068FFF7F1FB0020CBE7DE
:103C78000120C9E70120C7E7022070478800CEFF6E
:103C8800300010004000100001F01F014FF0010C3F
:103C98000CFA01FC036A23EA0C030362036A8A40F4
:103CA800134303627047000038B505460C461146B9
:103CB800102C41D8DFE804F0094040402040404043
:103CC8002840404030404040380090F83E00C0B2A4
:103CD800022814BF00200120002840F05981102C30
:103CE80078D8DFE804F031777777577777775F7799
:103CF8007777677777776F0090F83F00C0B2022830
:103D080014BF00200120E7E790F84000C0B2022865
:103D180014BF00200120DFE790F84100C0B202285C
:103D280014BF00200120D7E790F84200C0B2022853
:103D380014BF00200120CFE790F84300C0B202284A
:103D480014BF00200120C7E795F83E20D2B2012A0F
:103D580014BF00220122002A00F01C81002900F073
:103D68001B81002B00F01A81102C00F2E180DFE8A3
:103D780014F03900DF00DF00DF008F00DF00DF0014
:103D8800DF00A800DF00DF00DF00C100DF00DF0088
:103D9800DF00DA0095F83F20D2B2012A14BF0022D2
:103DA8000122D8E795F84020D2B2012A14BF002298
:103DB8000122D0E795F84120D2B2012A14BF00228F
:103DC8000122C8E795F84220D2B2012A14BF002286
:103DD8000122C0E795F84320D2B2012A14BF00227D
:103DE8000122B8E7022285F83E206A6A7348D06249
:103DF8006A6A734810636A6A724850632A68343280
:103E0800686AFDF7F9FF002840F0CC802A68D3687B
:103E180043F40073D360012221462868FFF734FF7A
:103E28002B68694A93420FD002F5006293420BD087
:103E380002F54062934207D002F58062934203D0B4
:103E480002F58062934203D15A6C42F400425A64EC
:103E58002B685D4A934200F08D80B3F1804F00F0EB
:103E68008980A2F59432934200F0848002F5806242
:103E780093427FD002F5963293427BD002F540629E
:103E8800934277D01A6842F001021A60002082E05B
:103E9800022285F83F20AA6A4848D062AA6A4848A0
:103EA8001063AA6A474850632A683832A86AFDF73F
:103EB800A3FF002878D12A68D36843F48063D360CD
:103EC800A9E7022285F84020EA6A3C48D062EA6AFB
:103ED8003B481063EA6A3B4850632A683C32E86A08
:103EE800FDF78AFF002861D12A68D36843F400638C
:103EF800D36090E7022285F841202A6B2F48D062D0
:103F08002A6B2F4810632A6B2E4850632A68403268
:103F1800286BFDF771FF00284AD12A68D36843F45B
:103F28008053D36077E7022385F84230012032E0DE
:103F3800022285F843200C2C32D801A252F824F032
:103F4800F33D0008A93F0008A93F0008A93F000861
:103F58009F3E0008A93F0008A93F0008A93F0008A4
:103F6800D13E0008A93F0008A93F0008A93F000862
:103F7800033F00089968154A0A40062A1AD0B2F584
:103F8800803F19D01A6842F001021A60002002E04E
:103F9800022000E0012038BD0120FCE70120FAE7FB
:103FA8000120F8E70120F6E70120F4E70120F2E715
:103FB8000120F0E70020EEE70020ECE7F7340008E6
:103FC8006935000895370008002C014007000100FA
:103FD80038B505460C460C2900F28D80DFE801F063
:103FE800078B8B8B4B8B8B8B548B8B8B5D00026879
:103FF800D36823F40073D360406AFDF747FF0022BB
:1040080021462868FFF740FE2B683C4A93420FD0B0
:1040180002F5006293420BD002F54062934207D04A
:1040280002F58062934203D002F5806293420DD17B
:10403800196A41F21112114208D1196A44F2444234
:10404800114203D15A6C22F400425A642B68196A4F
:1040580041F21112114208D1196A44F24442114244
:1040680003D11A6822F001021A60FCB9012385F80D
:104078003E30002040E00268D36823F48063D360B8
:10408800806AFDF703FFBAE70268D36823F4006388
:10409800D360C06AFDF7FAFEB1E70268D36823F47B
:1040A8008053D360006BFDF7F1FEA8E7043C0C2CAD
:1040B8001CD8DFE804F0071B1B1B0C1B1B1B111B68
:1040C8001B1B1600012385F83F30002014E0012354
:1040D80085F8403000200FE0012385F841300020AA
:1040E8000AE0012385F84230002005E0012385F825
:1040F8004330002000E0012038BD00BF002C014003
:1041080090F83C20012A40D030B40346012280F8C0
:104118003C20022280F83D200068426884681C4DDB
:10412800A84203D005F50065A84203D122F4700225
:104138004D682A4322F0007222F070020D682A436B
:1041480042601A681248824212D0B2F1804F0FD0F2
:10415800A0F5943082420BD000F58060824207D0EF
:1041680000F59630824203D000F54060824204D1C7
:1041780024F08004896821439160012283F83D205E
:10418800002083F83C0030BC70470220704700BF15
:10419800002C014090F83C30012B45D010B4024669
:1041A800012380F83C30CB6823F4407388680343CC
:1041B80023F480634868034323F4006308680343D7
:1041C80023F480530869034323F4005348690343E5
:1041D80023F48043086B034323F47023886943EA7C
:1041E800004323F08053C869034310680F4CA04272
:1041F80003D004F50064A04210D123F470038C6A44
:1042080043EA045323F080730C6A234323F00073BA
:104218004C6A234323F00053C96A0B4343640020CC
:1042280082F83C0010BC704702207047002C014007
:10423800704770477047704770477047704702680B
:1042480052E8003F23F4907342E800310029F6D188
:10425800026802F1080353E8003F23F0805323F07B
:104268000103083242E800310029F1D1C36E012B65
:1042780006D02023C0F88C300023C36643677047FC
:10428800026852E8003F23F0100342E80031002999
:10429800F6D1EEE770B504460168836802691343F6
:1042A80042691343C269134308688B4A02401A43A0
:1042B8000A602268536823F44053E1680B43536053
:1042C800A1692268854B9A4201D0236A19439368F1
:1042D80023F06E4323F430630B4393602268D36A60
:1042E80023F00F03616A0B43D36223687C4A93422D
:1042F80023D07C4A934234D07B4A93424AD07B4AAB
:10430800934259D0754A934268D0102273498B4220
:1043180000F09580E069B0F5004F00F0D280082ADF
:1043280000F24F81DFE812F01201340110014D0153
:1043380037014D014D014D013A0102F55842D2F8BD
:10434800882002F00302032A09D8DFE802F00204F9
:104358005C060122DAE70422D8E70822D6E7102211
:10436800D4E702F5E632D2F8882002F00C020C2AD3
:104378000ED8DFE802F0070D0D0D090D0D0D4A0DE1
:104388000D0D0B000022C1E70422BFE70822BDE79C
:104398001022BBE702F5E432D2F8882002F030029E
:1043A800202A34D004D8A2B3102A34D10422ADE78D
:1043B800302A32D10822A9E702F5E232D2F8882061
:1043C80002F0C002802A2AD004D852B3402A2AD147
:1043D80004229BE7C02A28D1082297E702F5C832B1
:1043E800D2F8882002F44062B2F5006F1FD005D8D9
:1043F800FAB1B2F5806F1ED1042287E7B2F5406F9B
:104408001BD1082282E7022280E702227EE70222ED
:104418007CE700227AE7102278E7102276E702226A
:1044280074E7002272E7102270E710226EE702227A
:104438006CE700226AE7102268E7102266E7082A7C
:1044480000F2AF80DFE802F008AD3BAD38ADADADAE
:1044580005004FF4004004E0FEF7FAFC002800F0E5
:10446800A280626A224B33F81220B0FBF2F365682F
:1044780005EB4501994200F29880B3EB053F00F245
:104488009680002633463146FCF718FB090241EABC
:10449800106100026B08C0182A46334641F100013A
:1044A800FCF70CFBA0F54072124B9A4200F2818097
:1044B8002368D860304662E0FEF784FBCEE70E48FA
:1044C800CFE7082A77D8DFE802F0193905763C7675
:1044D80076761D00084815E0F369FFCF008000409C
:1044E800003801400044004000480040004C0040B3
:1044F800E05A0008FFFC0F000024F400FEF7A8FCB7
:1045080000285AD0626A324B33F81230B0FBF3F00D
:104518006268530803EB4003B3FBF2F3A3F1100105
:104528004FF6EF7291424AD89AB222F00F02C3F3C3
:10453800420313432268D360002020E0FEF79AFC70
:10454800DEE7FEF73FFBDBE7224803E0FEF780FCEF
:10455800002838D0626A1E4B33F81230B0FBF3F0F3
:10456800636800EB5300B0FBF3F0A0F110024FF6C4
:10457800EF739A4229D8236880B2D86000200123BB
:10458800A4F86A30A4F8683000236367A36770BD95
:10459800FEF770FCDCE7FEF715FBD9E74FF40040A7
:1045A800D8E70120EBE70020E9E70120E7E7012051
:1045B800E5E70120E3E70120E1E70020DFE701204C
:1045C800DDE70120DBE70020D9E70120D7E700BFBE
:1045D800E05A00080024F400836A13F0080F06D09C
:1045E8000268536823F40043816B0B435360836A6A
:1045F80013F0010F06D00268536823F40033C16A30
:104608000B435360836A13F0020F06D002685368A5
:1046180023F48033016B0B435360836A13F0040F58
:1046280006D00268536823F48023416B0B43536020
:10463800836A13F0100F06D00268936823F480533E
:10464800C16B0B439360836A13F0200F06D0026896
:10465800936823F40053016C0B439360836A13F04F
:10466800400F0AD00268536823F48013416C0B434F
:104678005360436CB3F5801F0BD0836A13F0800F2F
:1046880006D00268536823F40023C16C0B435360BF
:1046980070470268536823F4C003816C0B4353606E
:1046A800EBE72DE9F84305460E4617469946DDF82F
:1046B80020802B68DC6936EA04040CBF012400243E
:1046C800BC4236D1B8F1FF3FF3D0FDF747FAA0EB73
:1046D8000900404530D8B8F1000F2FD02B681A6870
:1046E80012F0040FE5D0802EE3D0402EE1D0DA6935
:1046F80012F0080F11D1DA6912F4006FD9D04FF413
:1047080000621A622846FFF79AFD2023C5F8903008
:10471800002385F8843003200CE008241C62284616
:10472800FFF78DFDC5F89040002385F884300120FF
:1047380000E00020BDE8F8830320FBE70320F9E749
:1047480030B583B004460023C0F89030FDF706FA70
:1047580005462268126812F0080F10D123681B68FA
:1047680013F0040F28D12023C4F88830C4F88C3003
:104778000020E066206784F8840003B030BD6FF045
:104788007E430093034600224FF400112046FFF7B2
:1047980088FF0028E2D0226852E8003F23F0800317
:1047A80042E800310029F6D12023C4F888300023DC
:1047B80084F884300320E0E76FF07E4300932B46B3
:1047C80000224FF480012046FFF76BFF0028CAD073
:1047D800226852E8003F23F4907342E80031002930
:1047E800F6D1226802F1080353E8003F23F00103E1
:1047F800083242E800310029F3D12023C4F88C3074
:10480800002384F884300320B7E778B310B5044652
:10481800D0F888300BB32423C4F888302268136892
:1048280023F001031360A36AE3B92046FFF732FDC2
:10483800012811D02268536823F4904353602268FA
:10484800936823F02A0393602268136843F00103F6
:1048580013602046FFF774FF10BD80F88430FDF721
:1048680069F8D8E72046FFF7B7FEDEE70120704772
:10487800436E2BB90123A0F86A30A0F8683070475E
:1048880030B403689A68C2F342629968490F094DC7
:104898006B5CDB00084C615C93FBF1F3A0F86A30B9
:1048A800AB5CDB00A25C93FBF2F3A0F8683030BC91
:1048B800704700BF005B0008F85A000890F8843081
:1048C800012B18D0012380F884302423C0F88830C5
:1048D80003681A68196821F00101196022F0005272
:1048E8000023436601680A602022C0F8882080F807
:1048F8008430184670470220704738B590F88430E5
:10490800012B1DD00446012380F884302423C0F8ED
:10491800883003681D681A6822F001021A6002686C
:10492800936823F0604319439160FFF7A1FF236860
:104938001D602023C4F88830002084F8840038BD26
:104948000220FCE738B590F88430012B1DD00446CE
:10495800012380F884302423C0F8883003681D6858
:104968001A6822F001021A600268936823F06063F3
:1049780019439160FFF77CFF23681D602023C4F86A
:104988008830002084F8840038BD0220FCE700004D
:1049980008B5044B834200D008BD0C211846FFF728
:1049A80017FBF9E724090020F8B504468068FBF7EF
:1049B80051FDD4E90423FCF743F800284ED12368BD
:1049C8001B6800229A62D4E90467A068FBF742FDDD
:1049D80032463B46FBF7E2FE23681D68FCF74EF8BB
:1049E800E862D4E90467A068FBF734FD32463B4629
:1049F800FBF7D4FE2568FCF741F8E860636843B923
:104A080023681B6800225A6323681B6800205862C9
:104A1800F8BD043B0C2B1CD8DFE803F0071B1B1B5D
:104A28000C1B1B1B111B1B1B160023681B68002279
:104A38009A63E9E723681B680022DA63E4E72368DE
:104A48001B6800221A64DFE723681B6800229A6447
:104A5800DAE723681B680022DA64D5E70120D7E784
:104A6800F8B50446D0E904678068FBF7F3FC3246E2
:104A78003B46FBF793FEFCF701F80546D4E90667C9
:104A8800FBF7E8FC32463B46FBF75EFDFBF7F6FF1B
:104A980020622D1A6562F8BD09B90120704770B50A
:104AA800044615460E46084600F0D0FAE062324643
:104AB800002100F08DFDA662284600F0C7FAA06329
:104AC8002A46002100F084FD65637019C00001309A
:104AD8002064400000F0BAFA606400202063E063BC
:104AE80070BD70B5846A8C4217D3CD18013DAC42B5
:104AF80015D34FF0000C0AE00CEB010E0EF1FF3E4F
:104B080012F80C40C66A06F80E400CF1010C9C45E0
:104B1800F2D3ED000563002070BD0120FCE7012001
:104B2800FAE770B5446B8C4217D3CD18013DAC42FF
:104B380015D34FF0000C0AE00CEB010E0EF1FF3E0E
:104B480012F80C40866B06F80E400CF1010C9C45DF
:104B5800F2D3ED00C563002070BD0120FCE7012001
:104B6800FAE710B5002116E0B0F820E003EBC10C1D
:104B7800446C24F81CE052080133DBB2072B09D837
:104B8800D0F82CC01CF801C01CEA020FECD0B0F819
:104B980024E0EBE70131036BB1EBD30F02D2002322
:104BA8008022EBE74FF0000C17E0B0F820E0026B32
:104BB80002EBCC021A44446C24F812E04908013391
:104BC800DBB2072B07D8826B12F80C200A42ECD014
:104BD800B0F824E0EBE70CF1010CC36BBCEBD30F8E
:104BE80002D200238021ECE7426C016B0B440021C8
:104BF80022F8131010BD08B5036B1BB9C26B0AB9B4
:104C0800012008BDC26B13449BB201339BB2426CB6
:104C180041680068FFF748F80020F2E7000000004C
:104C280038B505460C460170482000F00FFAA86018
:104C38001CB1012C13D0012038BD03236B70002355
:104C4800AB704363AB6800201349C3E90401AB6848
:104C58000DA1D1E90001C3E906012046ECE70323D1
:104C68006B700223AB704363AB6809A1D1E9000103
:104C7800C3E90401AB6800200849C3E90601002024
:104C8800DAE700BFAFF300809A9999999999C93FDB
:104C98000000000000088A40000089400000D03F62
:104CA80070B5044616461D46FFF7BAFF08B1012045
:104CB80070BD66600023E370A3681D60A368049A52
:104CC8005A60A368059A9A60A068FFF76DFE08B15C
:104CD8000120EDE7A068FFF7C3FE6178A27806FB24
:104CE80001F1A068FFF7D8FE0028E1D00120DFE736
:104CF80008B50139437803FB01F101318068FFF7FA
:104D0800F0FE00B908BD0120FCE708B50A46837823
:104D180001218068FFF705FF00B908BD0120FCE705
:104D280038B54368ABB1054683689A6A9AB11B6C7B
:104D38009BB10123C370002405E001340123002244
:104D48002146FFF7CEFEA868836AA342F5D8002063
:104D580000E0012038BD0120FCE70120FAE710B58A
:104D68000446C3784BB18268936ADB001363826898
:104D7800536BDB00D3630023C370A068FFF7F1FE19
:104D8800A068FFF738FF00B910BD0120FCE700005C
:104D98002DE9F047089D0C46002B4ED194468C45D2
:104DA8008646B2FA82F262D94AB1C2F12003914032
:104DB80020FA03F30CFA02FC194300FA02FE4FEA48
:104DC8001C471FFA8CF6B1FBF7F44FEA1E4307FBAA
:104DD800141143EA014304FB06F199420AD91CEB7A
:104DE800030304F1FF3080F01381994240F21081EF
:104DF800023C6344591A1FFA8EF3B1FBF7F007FB24
:104E0800101143EA014300FB06F69E420AD91CEB47
:104E1800030300F1FF3180F0FD809E4240F2FA80EA
:104E2800634402389B1B40EA044000211DB1D34073
:104E38000022C5E90032BDE8F0878B4205D90DB1E3
:104E4800C5E9000100210846F5E7B3FA83F1002916
:104E580046D1A34202D39042C0F0F180861A64EB97
:104E680003030120002DE6D0C5E90063E3E7002A2B
:104E780040F09180A1EB0C044FEA1C481FFA8CF714
:104E88000121B4FBF8F64FEA1E4308FB164443EA37
:104E9800044307FB06F0984208D91CEB030306F10C
:104EA800FF3402D2984200F2CE8026461C1A1FFA1E
:104EB8008EF3B4FBF8F008FB104443EA044300FB0C
:104EC80007F79F4208D91CEB030300F1FF3402D215
:104ED8009F4200F2B1802046DB1B40EA0640A5E76E
:104EE800C1F120068B4022FA06F71F4320FA06FC80
:104EF80004FA01F343EA0C03F44000FA01F8380C11
:104F08004FEA1349B4FBF0FE1FFA87FC00FB1E446E
:104F180049EA04440EFB0CF9A14502FA01F20AD948
:104F28003C190EF1FF3A80F08580A14540F282805D
:104F3800AEF1020E3C44A4EB09041FFA83F9B4FB5A
:104F4800F0F300FB134449EA044403FB0CFCA445BA
:104F580007D93C1903F1FF3068D2A44566D9023B52
:104F68003C4443EA0E40A0FB0293A4EB0C049C4291
:104F7800CE469C4652D34FD055B1B8EB0E0364EBE6
:104F88000C0404FA06F6CB40CC401E43C5E9006485
:104F98000021BDE8F087C2F1200320FA03F10CFAE2
:104FA80002FC24FA03F394400C434FEA1C4800FA2D
:104FB80002FE1FFA8CF7B3FBF8F008FB1031230C44
:104FC80043EA014300FB07F1994208D91CEB0303AC
:104FD80000F1FF362CD299422AD9023863445B1A71
:104FE800A4B2B3FBF8F108FB113344EA034401FB14
:104FF80007F3A34208D91CEB040401F1FF3613D2CE
:10500800A34211D902396444E41A41EA004138E75D
:105018000446EFE6084605E7C845ADD2B9EB020EEF
:1050280063EB070C0138A7E73146EDE7034698E73D
:105038003046D4E7D6467EE7634402384CE7064656
:10504800234608460EE7023E63442FE7024B01461B
:10505800186800F003B800BF200400202DE9F04FC5
:1050680001F10B05162D85B0064623D8102900F24C
:10507800BC8000F0A1FA102518230221B84F3B4448
:10508800A3F108025C68944200F029816368E26831
:1050980023F003032344A168CA6091605A6842F070
:1050A800010230465A60083400F08CFA204605B0F8
:1050B800BDE8F08F35F0070500F19780A94200F2AE
:1050C800948000F079FAB5F5FC7FC0F071816B0A25
:1050D80000F08F80042B00F22D81AB0903F1390118
:1050E80003F1380CCB009E4F3B44A3F108005C68E9
:1050F800A04206D10CE0002A80F2EE80E468A042CB
:1051080006D0636823F003035A1B0F2AF3DD6146B8
:10511800DFF850C23C69644500F0CC80626822F038
:105128000302531B0F2B00F34781002BC7E904CC64
:1051380080F23481B2F5007F80F0D780D308786898
:1051480001334FEA521E012202FA0EF2024357F8C7
:1051580033E0C4F808E007EBC3000838E0607A6081
:1051680047F83340CEF80C408B100120984090420D
:1051780045D8104206D121F003014000104201F148
:105188000401FAD007EBC1094C468E46D4F80C80CE
:10519800444508D1DAE0002B80F2F080D8F80C8082
:1051A800444500F0D380D8F8042022F00302531BB2
:1051B8000F2BF0DD3046D8E9026408EB050145F015
:1051C8000105C8F80450F460A66043F00104C7E97B
:1051D80004114C60C1F808C0C1F80CC048F802308E
:1051E80000F0F0F908F1080460E70C2333600024AC
:1051F8005CE74FF4007340214FF03F0C73E7BC6845
:10520800636823F00309A94503D3A9EB05030F2B12
:1052180052DC554BDFF854B11B68082003F1100825
:1052280000F06CFADBF8003001900133A84404EB7D
:10523800090205D008F1FF388044434203EA080810
:1052480041463046029200F015FAB0F1FF3F029A4B
:10525800824600F0CC80824200F2C780444B01991C
:10526800186840441860844601F1FF3140F0EB8033
:105278001AEA010F40F0E780D7F808A0C84448F0C0
:105288000102CAF804203B4B1968814238BF1860F4
:10529800394B1968814238BF1860544622F0030818
:1052A800A845A8EB050301D30F2B05DC304600F019
:1052B80089F99CE77A6857E7621943F0010345F0DA
:1052C800010565603046BA60536000F07BF9083428
:1052D800204605B0BDE8F08FE2682344DBE6DC68D1
:1052E800A3427FF4D3AE023112E7B2F5206F4FEA42
:1052F800522374D3142B00F2098103F15C00C0001F
:105308005B3307EB000E3858AEF1080E864503D123
:10531800E2E08068864504D0436823F003039342A3
:10532800F7D8D0F80CE07A68C4E9020ECEF8084045
:10533800C46019E7142B5DD9542B00F2EF802B0BB6
:1053480003F16F0103F16E0CCB00CCE60EF1010EF8
:105358001EF0030F04F108047FF418AF55E000BFF6
:105368001800002020000020AC0B00200C000020BA
:105378007C0B0020A80B0020A40B002042444446CC
:105388005368D8F80C1043F00103536054F8083FF1
:105398003046D9608B6000F015F987E62244304624
:1053A800536843F001035360083400F00BF97DE6BD
:1053B800E90805F1080361E6611945F00105656032
:1053C80043F00105C7E904113046C1F808C0C1F827
:1053D8000CC04D60A35000F0F5F8083466E6930958
:1053E80003F13900C00038338BE7BC4223D0BC68D6
:1053F800626853E703F15C0103F15B0CCB0072E6D2
:1054080059F808394B4540F0D28011F0030F01F1EB
:10541800FF31F5D17B6823EA00037B6040009842A6
:105428003FF6EDAE18B9EAE640000EF1040E184258
:10543800FAD07146A6E65F4B0199186808EB000C94
:105448000139C3F800C0DBF8000001301BBFAAEB2C
:1054580002026244CBF800A01A601AF00702CDE9F4
:10546800022342D0C2F10802019B9244D044134463
:1054780008EA01001A1A02EA010B5946304600F000
:10548800F9F8421C039B76D0A0EB0A0000EB0B084E
:105498001868C7F808A048F001025844BC42CAF886
:1054A800042018603FF4EFAEB9F10F0F40D96168DE
:1054B800A9F10C0222F0070201F001011143616019
:1054C800A1184FF0050C0F2AC1F804C0C1F808C094
:1054D80046D8DAF80420D6E69A104FF001087B681F
:1054E80008FA02F21A437A601EE7019B0AEB0802E7
:1054F8000A409A1A02EA010B5946304600F0BAF8F7
:10550800431C039BC0D1DDF808B0C1E7542B13D866
:10551800130B03F16F00C0006E33F2E6B3F5AA7FF8
:1055280013D8EB0B03F1780103F1770CCB00DAE524
:105538000123CAF80430B9E6B3F5AA7F23D8D30B00
:1055480003F17800C0007733DBE640F2545293420F
:1055580023D8AB0C03F17D0103F17C0CCB00C2E531
:10556800304604F10801019300F042F9019BD7F895
:1055780008A01868ADE7029A083A9044A8EB0A0810
:105588004FF0000B84E740F2545083420BD8930C41
:1055980003F17D00C0007C33B3E64FF47E737F21B6
:1055A8004FF07E0C9FE54FF47E707E23A9E67B6862
:1055B80034E700BF7C0B0020014800F09BB800BF17
:1055C800EC0C0020014800F097B800BFEC0C00205C
:1055D800830730B547D0541E002A3ED0CAB20346CE
:1055E80001E0013C39D303F8012B9D07F9D1032CC5
:1055F8002CD9CDB205EB05250F2C05EB054535D982
:10560800A4F1100222F00F0C03F1100EE6444FEA49
:10561800121C1A46156055609560D56010327245A7
:10562800F8D10CF1010214F00C0F03EB021204F094
:105638000F0C13D0ACF1040323F003030433134419
:1056480042F8045B9A42FBD10CF003042CB1C9B2B6
:105658001C4403F8011B9C42FBD130BD6446134631
:10566800002CF4D1F9E703461446C0E71A46A446CD
:10567800E0E700BF38B5074D0022044608462A6017
:10568800FBF716FD431C00D038BD2B68002BFBD060
:10569800236038BDE80C0020014B1868704700BF34
:1056A8002004002070B50F4B0F4DAB42A3EB05064D
:1056B80007D0B610002455F8043B01349847A64299
:1056C800F9D800F0EFF9094D094B5E1BAB424FEAE0
:1056D800A60606D0002455F8043B01349847A64294
:1056E800F9D870BD105B0008105B0008105B00085B
:1056F800185B0008704700BF704700BF082802D138
:105708004FF48050704708B5FFF7C6FF16230360B3
:105718004FF0FF3008BD00BF024B13B1024800F044
:1057280005B8704700000000FD5900080023014635
:105738001A46184600F072B92DE9F84306460820C3
:105748008946FFF7DBFFDFF89C8005463046FFF708
:1057580033FFD8F808305F6827F00307A7F1110472
:10576800A4EB09042C44B4FBF5F4013C05FB04F458
:10577800A54208DC00213046FFF77CFFD8F8083046
:105788003B44984205D03046FFF71CFF0020BDE897
:10579800F88361423046FFF76DFF01300FD0124A9F
:1057A800D8F808303F1B47F001075F6013683046A0
:1057B8001B1B1360FFF706FF0120BDE8F8830021DB
:1057C8003046FFF757FFD8F80820831A0F2BDADD89
:1057D80043F001035360054B03491B68C01A086076
:1057E800D1E700BF180000207C0B00200C0000202F
:1057F80000297DD0F8B50C460646FFF7DDFE54F8C3
:10580800042C794FA4F1080522F0010105EB010CE5
:10581800B868DCF80430604523F0030300F08880A2
:10582800D207CCF8043032D454F8082CAD1A1144FD
:10583800AA6807F1080082426BD00CEB0304D4F885
:1058480004E0EC68D4601EF0010FA26000F08980CB
:1058580041F001036B60CCF80010B1F5007F24D251
:105868007868CB080122490901338A40024357F876
:1058780033107A6007EBC302083AC5E9021247F809
:105888003350CD603046BDE8F840FFF79BBE0CEBC7
:1058980003025268D2072CD541F00103B1F5007F0D
:1058A80044F8043CCCF80010DAD3B1F5206F4FEA85
:1058B800512358D28B0903F1390003F13802C30090
:1058C800F818FB580838984203D166E09B6898425C
:1058D80004D05A6822F003028A42F7D8D868C5E98A
:1058E80002308560DD603046BDE8F840FFF76ABEEB
:1058F8007047194407F10800DCF80830834243D0A8
:10590800DCF80C20DA60936041F001036B606950A9
:10591800A3E70CEB03025268D0075FD40B44DCE921
:105928000212CA60916043F001026A60EB50A9E775
:105938000B44D10707D454F8082CAD1A1344D5E901
:105948000212CA60916043F001026A60274ABD6092
:1059580012689A4296D8264B30461968FFF7ECFE33
:1059680090E71944C8E7142B08D9542B1DD80B0B02
:1059780003F16F0003F16E02C300A1E703F15C00BD
:1059880003F15B02C3009BE741F001033D617D61C8
:10599800A860E8606B60695074E779689210012428
:1059A80004FA02F20A437A6099E7B3F5AA7F06D8A7
:1059B800CB0B03F1780003F17702C30080E740F2D4
:1059C8005452934206D88B0C03F17D0003F17C02FC
:1059D800C30075E74FF47E737E2271E741F001033F
:1059E8006B60CCF800104DE7180000201000002074
:1059F800AC0B002038B5074D074C2C1BA41005D064
:105A0800013C55F8043D9847002CF9D1BDE83840D1
:105A180000F04EB81C5B0008185B00082DE9F04741
:105A2800DFF874A00646DAF8000098460F4691465B
:105A3800FFF760FE194B1C6824B365681F2D24DC32
:105A48005EB96B1C0235DAF80000636044F8257013
:105A5800FFF752FE0020BDE8F08704EB8501012323
:105A6800C1F88890D4F88821AB401A43022EC4F8B4
:105A78008821C1F80881E4D1D4F88C211A43C4F8EC
:105A88008C21DEE7064C1C60D7E7DAF80000FFF748
:105A980033FE4FF0FF30DEE748050020F40C00200D
:105AA800F80C0020F8B500BFF8BC08BC9E4670474B
:0C5AB800F8B500BFF8BC08BC9E46704763
:105AC400141414000000000001020304000000008C
